:1000000000000120B5230000DD230000DF230000F5
:10001000E1230000E3230000E523000000000000CE
:10002000000000000000000000000000E7230000C6
:10003000E923000000000000EB230000ED23000096
:10004000EF230000EF2300009D280000EF230000B5
:10005000EF230000EF230000A1290000EF230000A0
:10006000EF230000EF230000EF230000EF23000048
:10007000EF230000EF230000EF230000EF23000038
:10008000EF230000492A0000EF230000EF230000C7
:10009000EF230000EF230000EF230000EF23000018
:1000A000EF230000EF230000EF230000EF23000008
:1000B000EF230000EF23000000000000000000001C
:1000C000EF230000EF230000EF230000EF230000E8
:1000D000EF230000EF230000EF23000000000000EA
:1000E0000000000000000000000000000000000010
:1000F0000000000000000000000000000000000000
:1001000000000000000000000000000000000000EF
:1001100000000000000000000000000000000000DF
:1001200000000000000000000000000000000000CF
:1001300000000000000000000000000000000000BF
:1001400000000000000000000000000000000000AF
:10015000000000000000000000000000000000009F
:10016000000000000000000000000000000000008F
:10017000000000000000000000000000000000007F
:10018000000000000000000000000000000000006F
:10019000000000000000000000000000000000005F
:1001A000000000000000000000000000000000004F
:1001B000000000000000000000000000000000003F
:1001C000000000000000000000000000000000002F
:1001D000000000000000000000000000000000001F
:1001E000000000000000000000000000000000000F
:1001F00000000000000000000000000000000000FF
:10020000044B05481B1A062B02D9044B03B11847AF
:10021000704700BFE3000020E00000200000000065
:1002200005490648091A891001EBD171491002D01D
:10023000034B03B118477047E0000020E0000020A6
:100240000000000010B5064C237843B9FFF7D8FF33
:10025000044B13B10448AFF300800123237010BD99
:10026000E000002000000000CC63000008B5084B4F
:100270001BB108490848AFF300800848036813B968
:10028000BDE80840CCE7064B002BF9D09847F7E7CC
:1002900000000000E4000020CC630000DC0000202F
:1002A00000000000154B002B08BF134B9D46A3F523
:1002B000803A00218B460F461348144A121A03F065
:1002C00009FA0F4B002B00D098470E4B002B00D0A3
:1002D00098470020002104000D000D48002802D09E
:1002E0000C48AFF3008003F0CFF92000290002F0A2
:1002F000C1FB03F0A3F900BF0000080000000120CB
:100300000000000000000000E000002028050020A0
:1003100000000000000000002DE9F047AA4CAB48A7
:1003200000F0CEFE2368082B00F2E181DFE813F035
:100330000900DC0016002D005C000D014900F800EA
:1003400084014FF4FA7002F071FBA04800F0A0FDA8
:100350009F49A04801F018FF0223C9E19B4800F023
:1003600021FB002800F0C5819B4B1B78002B40F03F
:10037000C0819A49974801F007FF944800F0F2FDC8
:10038000974BC3E900010323B2E1964D8F4800F07B
:100390008EFD012229468D482A7001F057FA9249B4
:1003A0008C4801F0F1FE0A2229788A4801F022FFE8
:1003B00002F024FB8D4B00F59C500830186006239A
:1003C00096E102F01BFB894B1B68984206D9032378
:1003D00087498048236001F0D7FE05E07B4800F0A4
:1003E000D6FA08B104232360804E02F007FB33687D
:1003F000984203D9032323607E49AFE0734800F09D
:1004000047FD724800F0CEFA002800F07281724D6C
:100410006E482B78032B63D100F0A4FDDFF80C921B
:10042000DFF80C82DFF80CA2734FC9E9000105F177
:100430000B01664800F048FDC8E9000105F11A010A
:10044000624800F041FDCAE9000105F10B015F4877
:100450006A4D00F039FDC7E9000169495D4801F0C6
:1004600093FE02F0CBFA00F59C5008303060654EE8
:10047000DAF8002033686449564813402B6001F0D5
:1004800073FE296853480A2201F0E0FED9F80020E3
:1004900033685E494F4813402B6001F065FE2968C0
:1004A0004C480A2201F0D2FED8F80020336858499F
:1004B000484813402B6001F057FE296845480A223E
:1004C00001F0C4FE3A6833685249424813402B6039
:1004D00001F04AFE0A2229683E4801F0B7FE70E0AA
:1004E000BDE8F04700F0D4BC3E4D384800F0DFFCDA
:1004F0000122294635482A7001F0A8F93A493548C1
:1005000001F042FE0A222978324801F073FE02F01F
:1005100075FA364B00F59C50083018600723E7E069
:100520002A4800F0B5FC02F069FA304B1B6898428B
:1005300003D9012323602E4910E0244800F027FA54
:10054000002800F0D6800523D2E002F057FA274BAE
:100550001B68984207D901232F4923601D48BDE835
:10056000F04701F011BE194800F01CFA002800F015
:10057000C080194D2B78032B23D1144800F0F2FCD6
:10058000264BC3E9000105F11001104800F09CFC66
:10059000234BC3E9000105F11F010C4800F094FC56
:1005A000154BC3E9000105F12901084800F08CFC56
:1005B0001C4BC3E900011C49064801F0E5FD082376
:1005C00096E0012394E000BF14010020A801002060
:1005D000305E000084040020480300204C5E0000D0
:1005E000C8030020240100205D5E000020030020DD
:1005F0006F5E00007E5E0000000100200801002008
:10060000895E000000000020A65E0000AA5E0000D7
:10061000AE5E0000B25E0000B65E0000080300207F
:100620001003002018030020C15E000040030020DA
:100630002803002030030020334B3449344DD3E9E4
:100640000067344BD3E90089334BD1E90001D3E98A
:100650000023101A63EB010101EA07032F4900EAA6
:100660000602D1E90001B0EB080061EB090130405E
:10067000101A01EA070163EB0101294FDFF8B4907A
:1006800049084FEA3000386002F022FC1AA3D3E98F
:10069000002302F083FC1AA3D3E9002302F07EFCBE
:1006A00002F05EFF08EA060628601E491E48C9F8E7
:1006B000006001F059FD0A22D9F800101A4801F033
:1006C000C5FD1A49184801F04FFD0A22396816483D
:1006D00001F0BCFD1649144801F046FD286802F0FF
:1006E00009FC41EC100B02210F4801F057FE0023DA
:1006F0002360BDE8F08700BFF6283C1319DDB14147
:10070000F2E8C0581535B13D000000201801002066
:100710000C0100203003002040030020380300209B
:1007200020010020A65E000084040020DE5E0000A0
:10073000EC5E00000801002014220F21014800F0A7
:10074000DBB800BFA801002008B50B484FF4E13129
:1007500001F06CFF094801F0A9FC18B908490648E6
:1007600001F012FD074A0849044800F013F9074B4D
:1007700000221A6008BD00BF84040020A8010020E8
:10078000015F000010010020480300201401002038
:1007900038B50025057329B90B4B0C4A0C482521A7
:1007A00002F02EFF01600B4951F82220027151F82E
:1007B000233083719DF8103051F8233043710223A8
:1007C000C371856038BD00BF545F0000175F000033
:1007D000625F000020610000037B23B943738373D1
:1007E00003610123037370471FB50DF1100E0EE96D
:1007F0000E009DF80810026800230129C2F8003598
:10080000039B08D004D3032907D143F0040304E079
:1008100043F0020301E043F00603C2F85435019BA4
:10082000C2F824350123C2F8003505B05DF804FB99
:1008300010B5FFF7D1FF03688279C3F80825427924
:10084000C3F80C250279C3F81025034BBDE810400E
:100850000ECBFFF7C9BF00BFD003002010B485B096
:1008600001AC84E80E0094E80E0005B05DF8044B7E
:10087000FFF7BABF70470368C3F81C15D3F8082107
:10088000002AFBD0D3F818050022C3F80821C0B213
:100890007047000007B50E4B0E490F484FF08042DD
:1008A0001A6000229A6002221A710723009308221C
:1008B0000923FFF76DFF11230093102212234FF03D
:1008C00040210648FFF764FF03B05DF804FB00BF5A
:1008D000D003002000300240DC030020F0030020A1
:1008E00000B962B670470000024B1B68012283F812
:1008F0005B21704704040020F0B548F27904A0F8A9
:100900000041022501244FF0804680F8024180F822
:10091000034180F805510024C0F8086180F80C51AB
:100920000026002700F58C7580F8044180F8064108
:10093000C0F81041C5E9006700F59875C0F820417E
:10094000C0F82441A0F8284180F82A4180F82B41C2
:1009500080F82C41C5E9006700F59C75C5E9006782
:10096000002500260027C0F840511025C0E9526735
:10097000C0E9546780F85A5180F85B4180F85C41C7
:1009800080F85D4180F8581180F85921F0BD90F849
:100990002C0170470023C0F82011C0F82421A0F8D2
:1009A0002831704790F82A3123B1002380F82A318A
:1009B000012070471846704770B50D4616460C4624
:1009C000631B9E4205DD14F8011B0248FFF753FF2D
:1009D000F6E770BDF003002070B50D4616460C46D4
:1009E000631B9E4206DD00210348FFF744FF04F825
:1009F000010BF5E770BD00BFF00300202DE9F843BF
:100A00000446894617469846EFF3108572B6114E94
:100A100000F584730ECB3046FFF720FF94F85801A1
:100A2000002102F0BBF809F03F013046FFF723FF39
:100A3000424639462046FFF7CFFF94F8580101217E
:100A400002F0ACF83046FFF715FF2846BDE8F84342
:100A5000FFF746BFF00300202DE9F84301F03F0106
:100A60007F2A984604461546BDF8209041F040067E
:100A700000F5847311D8EFF3108772B61D480ECBC2
:100A8000FFF7ECFE002194F8580102F087F8314698
:100A90001848FFF7F0FEE9B217E0EFF3108772B6DF
:100AA00014480ECBFFF7DAFE002194F8580102F04B
:100AB00075F831460F48FFF7DEFE65F07F01C9B2D9
:100AC0000C48FFF7D8FEC5F3C7110A48FFF7D3FE5D
:100AD0004A4641462046FFF77FFF94F8580101211E
:100AE00002F05CF80348FFF7C5FE3846BDE8F8435E
:100AF000FFF7F6BEF00300202DE9F84304460F4649
:100B000090469946EFF3108572B6124E00F5847345
:100B10000ECB3046FFF7A2FE94F85801002102F0F8
:100B20003DF807F03F0141F080013046FFF7A3FE9A
:100B30004A4641462046FFF73FFF94F858010121FD
:100B400002F02CF83046FFF795FE2846BDE8F84342
:100B5000FFF7C6BEF00300202DE9F8437F2A1F46A9
:100B600004461546BDF8208041F0C00900F58473A5
:100B700011D8EFF3108672B61D480ECBFFF76EFE4C
:100B8000002194F8580102F009F849461848FFF787
:100B900072FEE9B217E0EFF3108672B614480ECB7E
:100BA000FFF75CFE002194F8580101F0F7FF494679
:100BB0000F48FFF760FE65F07F01C9B20C48FFF7F0
:100BC0005AFEC5F3C7110A48FFF755FE424639469B
:100BD0002046FFF7F1FE94F85801012101F0DEFFF5
:100BE0000348FFF747FE3046BDE8F843FFF778BEFD
:100BF000F00300202DE9F04186B006AB0646904692
:100C000023F80A1DEFF3108572B6022206AC00929B
:100C10002D210422FFF7A0FF032304F8013D012743
:100C200023463046009706222D21FFF795FF00232B
:100C30008DF8173030462346009706222D21FFF706
:100C40008BFF042300930A2243462D213046FFF7F1
:100C500003FF2846FFF744FE06B0BDE8F0810868B0
:100C6000704713B5042304460DEB0302FFF7C6FEDD
:100C700001A92046FFF7F3FF02B010BD0B0ED370A1
:100C80000B0C93700B0A53701170704737B50D46FB
:100C9000114601AAFFF7F2FF04230DEB03022946D8
:100CA000FFF72AFF03B030BD2DE9F74F4FF0006387
:100CB0004FF002090025C0F80831044680F80C9175
:100CC000C0F81051642001F0B1FE36212046FFF734
:100CD000C8FF064620F0030242F0010236212046FA
:100CE00026F07046FFF7D2FF26F00306012001F040
:100CF0009DFE46F0010236212046FFF7C7FF012086
:100D000001F094FE46F0704236212046FFF7BEFF08
:100D1000052001F08BFEEFF3108A72B65B4F04F5ED
:100D2000847696E80E003846FFF798FD294694F839
:100D3000580101F033FF4FF00108032304226946F4
:100D400020464FF0F60B8DF803308DF800B08DF88B
:100D500001508DF80280FFF72FFE414694F85801AC
:100D600001F01CFF3846FFF785FD96E80E00384677
:100D7000FFF774FD294694F8580101F00FFFED23A9
:100D80008DF80030062304228DF801306946802357
:100D900020468DF803308DF80250FFF70DFE4146D6
:100DA00094F8580101F0FAFE3846FFF763FDA020E1
:100DB000013800BF00BF00BF00BF00BF00BF00BFC1
:100DC00000BF00BF00BF00BF00BF00BF00BF00BF2B
:100DD00000BF00BF00BF00BF00BF00BF00BF00BF1B
:100DE00000BF00BF00BF00BF00BF00BF00BF00BF0B
:100DF00000BF00BF00BF00BF00BF00BF00BF00BFFB
:100E000000BF00BF00BF00BF00BF00BF00BF00BFEA
:100E100000BF00BF00BF00BF00BF00BF00BF00BFDA
:100E200000BF00BF00BFC3D196E80E003846FFF7F1
:100E300015FD294694F8580101F0B0FE04226946D8
:100E400020468DF800B08DF801508DF802508DF8D5
:100E50000390FFF7B1FD414694F8580101F09EFE62
:100E60003846FFF707FD5046FFF73AFD4FF00043C5
:100E7000C4F8083184F80C91C4F81051404601F0D0
:100E8000D5FD84F82B5103B0BDE8F08FF0030020AE
:100E900090F82B31022B10B5044607D04FF4807226
:100EA0000D21FFF7F3FE022384F82B3110BD90F8DB
:100EB0002B3110B5044633B140220D21FFF7E6FE79
:100EC000002384F82B3110BD08B500220B79FFF701
:100ED000C6FE42EA00021046194608BD38B50C4667
:100EE00004310546FFF7BBFE214603462846002293
:100EF000FFF7B5FE42EA00021046194638BD0099D8
:100F0000180EC871180C88710B71180A130ECB706B
:100F1000130C8B70130A48714B700A70704708B538
:100F20000421FFF79EFE80F48020C0F3804008BDBE
:100F300038B50D4604210446FFF793FE042140F422
:100F400080222046FFF7A2FE2A4620461E21BDE849
:100F50003840FFF79BBE08B5FFF7E1FF80F00100C6
:100F6000C0B208BD00F59C70D0E9000170470000D8
:100F70002DE9F84390F85A31102B0646174603D056
:100F80004BA5D5E9004502E04BA5D5E9004508464B
:100F900001F09EFF22462B4602F000F800230022BB
:100FA00001F04AFE96F8043196F8056180468946BC
:100FB000C3B1012E08D004D3022E10D10022384B29
:100FC00004E00022374B0FE0374B00222046294631
:100FD00001F0E4FF42464B4601F02EFE1FE00022E6
:100FE000324B07E02E4B00222046294601F0D6FF67
:100FF00042464B4601F020FE8EB91FA3D3E90023E1
:1010000001F01AFE044638460D4601F051FF002259
:10101000234B01F0C3FF1AA3D3E900231FE01AA357
:10102000D3E9002301F008FE012E04460D460CD042
:10103000022E19D1384601F03BFF0022184B01F077
:10104000ADFF13A3D3E9002309E0384601F030FFD8
:101050000022134B01F0A2FF0FA3D3E9002302F0FB
:10106000C7F822462B4601E0104B002201F0E4FDB8
:1010700041EC100BBDE8F8838F6898F9C3A3263FB5
:101080000000000000DBFA40D1FCD06B5270F73E4C
:1010900000000000A0F0594100000000A0F029412C
:1010A0000000204000005040000030400000F03FB1
:1010B0000DD18C04B012B13E13251CC26FABB03EF3
:1010C0002DE9F04790F85B3186B00446002B00F024
:1010D0004581EFF3108572B60F21FFF7C2FD0023A3
:1010E000824684F85B312846FFF7FAFB1AF0010FBD
:1010F00000F034811AF4005200F0F7801AF48042B4
:1011000084F82B3100F0E980D4F82031002B00F076
:10111000E28010212046FFF7A4FDC0F30906D4F8B1
:101120002431023EB6B2C0F3C0221E80C0F3814318
:1011300043EA8203043B9BB2082B96BF904A4FF6CA
:10114000FF7132F813100546B21C2046FFF710FF5E
:1011500051EC100B02F004FAB4F82821C4F8400155
:101160002AB1D4F82011921B33460A4402E0D4F885
:101170002021334611212046FFF740FC1AF4806FEE
:1011800000F0A98006AE002306F8083D8DF8173060
:1011900032468DF816308DF815308DF814308DF8F4
:1011A00013308DF812308DF81130152105232046AB
:1011B000FFF724FC31462046FFF790FE04F59C73B0
:1011C000C3E900013246032314212046FFF716FC31
:1011D00094F85A31102B03D063A7D7E9006701E0D8
:1011E000684F00269DF812209DF811309DF81000E0
:1011F00012F0040F19D0D24302F00701DA43D3B240
:10120000C0438DF81130C0B203EB01238DF81000FC
:1012100000EB03208DF8121001F05AFE00225A4B09
:1012200001F00AFD01F1004105E003EB022300EBB0
:10123000032001F04DFE4EA3D3E9002301F0AEFEE2
:1012400032463B4606AE01F0D3FF002346F80C3D84
:101250004FF0010803232822C4E9520184F82A81AF
:101260000093272133462046FFF7F6FB3146204600
:10127000FFF7F5FCC10248BF4042C0F3130048BF6E
:101280004FF0FF3801F014FE0022404B01F086FEC3
:101290000F460646404601F01BFE32463B4601F033
:1012A0007DFEAA0434A3D3E900234CBF384F394F45
:1012B00001F074FE00268046894632463B463046A1
:1012C000394601F0B9FC02460B464046494601F05A
:1012D0008FFFC4E954014FF480421AF4004F18BF45
:1012E00042F4004242F4005500E015461AF0800F27
:1012F00026D006AE002306F8083D84F82B318DF881
:1013000017308DF816308DF815308DF814308DF8B3
:1013100013308DF812308DF8113032460523172125
:101320002046FFF76BFB31462046FFF7D7FD04F55B
:101330009873C3E90001012384F82C3145F080053E
:101340002A460F212046FFF7A1FC0F212046FFF778
:1013500088FCC30744BF012384F85B3106B0BDE8B5
:10136000F08700BFAFF300800000000000C07F41A5
:101370000000000080842E410000000030C1CD41FB
:101380000C60000000007F410000F03F0000D03EF4
:1013900000A08F400000C04013B5082304466A46F1
:1013A0000121FFF72BFB69462046FFF797FD02B0AE
:1013B00010BD38B50A4605460C460321FFF766FC0A
:1013C00003212846FFF74DFC231A5842584138BDE7
:1013D0001FB50123009300220DF10F031F21FFF71A
:1013E0003BFB9DF80F0005B05DF804FB08B5FFF767
:1013F000EFFF00F00F0008BD1F21FFF732BC08B55A
:101400001F21FFF72EFCC0F38140012804D00228E1
:101410000CBF4020002008BD102008BD08B50821E1
:10142000FFF71FFCC0F30140012804D002280CBFC5
:101430004020002008BD102008BD000037B505463B
:10144000FFF7D4FF0B4B53F820402846FFF7E6FF89
:101450006400094B04EBA01001AA53F820102846A1
:10146000FFF70CFC019A1E212846FFF70FFC03B082
:1014700030BD00BF946000002C60000038B50D4600
:1014800004210446FFF7EDFB042120F480222046CE
:10149000FFF7FCFB2046FFF7D1FF84F8035138BD6E
:1014A00037B50546FFF7A2FF0A4B53F82040284600
:1014B000FFF7B4FF6400084B04EBA01001AA53F837
:1014C00020102846FFF7DAFB01992846FFF730FD88
:1014D00003B030BD94600000E45F000008B51F2138
:1014E000FFF7BFFBC0F3845008BD1FB590F85A3119
:1014F000012B30D110290FD0202918D008294FF006
:101500001A021FD131238DF80F3000238DF80D30D2
:101510008DF80E202D234FE033238DF80F301A2342
:101520008DF80E3000238DF80D30522344E0352322
:101530008DF80F301A238DF80E3000238DF80D3002
:101540009A2339E037218DF80D308DF80F108DF882
:101550000E201D2330E010290FD0202918D0082993
:101560004FF03B031FD131228DF80E3000238DF850
:101570000D308DF80F206B231EE033238DF80F30D4
:101580003B238DF80E3000238DF80D30BE2313E081
:1015900035238DF80F303B238DF80E3001238DF865
:1015A0000D305E2308E037228DF80E3002238DF8CF
:1015B0000D308DF80F2096238DF80C300423009306
:1015C000082203AB2721FFF7C7FA05B05DF804FB3B
:1015D00030B5102985B004460D4601D0402922D1EE
:1015E00008212046FFF73DFB102D0CBF01250225E9
:1015F00020F4403242EA054208212046FFF746FB2C
:101600008823012D8DF80D300CBF70239B238DF89E
:101610000C3002230093204603AB04222321FFF762
:101620009BFA012000E0002005B030BD802908D9D8
:10163000B1F5007F07D9B1F5806F94BF202040201D
:101640007047082070471020704738B54B1E132B89
:1016500005460C460CD81F21FFF703FB20F0F8626B
:1016600042EA845228461F21FFF710FB012038BDB3
:10167000002038BD08B50821FFF7F3FAC0F3834016
:1016800001380C289ABF024B33F91000802008BDA6
:10169000E460000030B50446102985B00D4684F89A
:1016A0005A1101D0402948D11F212046FFF7D9FA0D
:1016B000102D0CBF0125022520F4402242EA85426C
:1016C0001F212046FFF7E2FA2046FFF7D3FF81B241
:1016D0002046FFF7ABFF01462046FFF706FF002339
:1016E000012D8DF809300DD187238DF8083094F83D
:1016F0000631002B41F2076318BF03231A0A8DF845
:101700000D2006E08D238DF8083006238DF80D306E
:10171000072302258DF80C30042202AB2721204636
:101720000095FFF719FA2046009503AB41F6060233
:101730002E21FFF711FA012000E0002005B030BD96
:1017400007B502AA002342F8043D1E21FFF752FA12
:101750009DF8040000F01F0003B05DF804FB1FB506
:1017600001F01F0104AB41F06001012203F8011DEB
:1017700000922B210E22FFF7EFF905B05DF804FB74
:1017800010B50446FFF7DCFF01462046BDE81040D7
:10179000FFF7E5BF07B5022301AA1821FFF72EF9CD
:1017A0009DF805009DF8043043EA002003B05DF881
:1017B00004FB0000F0B5044685B015461F46EFF364
:1017C000108672B6012380F82B3113460A46092190
:1017D000FFF792F908212046FFF743FA20F47F72C1
:1017E00022F0030202352A4308212046FFF74EFA71
:1017F000DFB12046FFF7CEFFDDE90A2380B2121ADF
:101800004FF00001104863EB010302ADFF210240DD
:101810000B4020460095FFF772FB2A4605230A215C
:101820002046FFF769F9062200E002220D2120463A
:10183000FFF72CFA0023304684F82C31FFF750F8DC
:10184000012005B0F0BD00BF00FEFFFF37B500244A
:101850000025CDE900450023FFF7ACFF03B030BD04
:1018600007B502AA0B0A8DF8053002F8041D022301
:101870001821FFF741F903B05DF804FB1FB50B0A0F
:101880008DF80D3004AB022203F8041D00922E21C6
:1018900041F60402FFF760F905B05DF804FBF8B506
:1018A0000D462C2164266943B1FBF6F189B204464A
:1018B0001746FFF7D5FF382169432046B1FBF6F103
:1018C00089B2FFF7DBFFA4F8005184F80271F8BD7C
:1018D00010B50446FFF78AFD94F85A3101384000EC
:1018E00000EB9310044B012233F810102046BDE8A2
:1018F0001040FFF7D4BF00BFC85F000038B50446F2
:101900000D46FFF765FE18B129462046FFF7C2FED7
:1019100094F80231054613B12046FFF7D9FF94F839
:10192000033173B12046FFF7FAFA18B12046FFF7EA
:1019300085FD06E02046FFF70EFB10B12046FFF7BD
:10194000AFFD284638BD012380F80231FFF7C0BF44
:101950001FB504AB012203F8011D009221210022D2
:10196000FFF7FAF805B05DF804FB1FB50B0A8DF818
:101970000D3004AB022203F8041D0092272120221F
:10198000FFF7EAF805B05DF804FB08B50821FFF79A
:1019900068F910F4C04004D0B0F5005F14BF022015
:1019A000012000F0030008BD30B54B1E132B85B09D
:1019B00004460D4624D81F21FFF753F920F0784242
:1019C00042EAC56220461F21FFF760F90E4B204610
:1019D00033F81530ADF80E30FFF7D7FF20B9BDF85A
:1019E0000E30DB10ADF80E300223009320460DF1CF
:1019F0000E0342F604022E21FFF7AEF8012000E0AC
:101A0000002005B030BD00BF6060000038B504465E
:101A10000D46FFF71AFE28B129462046BDE838409A
:101A2000FFF7C2BF38BD00002DE9F043062985B09D
:101A300004460D4600F0D6804E1EF3B2062B00F28F
:101A4000D1806A4B53F8217004230093684B4FEA0E
:101A500087094B4407222B21FFF77EF801230093CF
:101A6000644B0B223B442B212046FFF775F8042DD5
:101A700001D0072D01D1BC2300E0D8234FF001088D
:101A80008DF80F300B220DF10F0328212046CDF8E1
:101A90000080FFF761F804230093574B0C224B445E
:101AA00028212046FFF758F8544BCDF800803B44DE
:101AB00020460B222A21FFF74FF82046FFF70EFDA4
:101AC000062E48D8DFE806F0040F1A2530473B0001
:101AD0002046FFF794FC10283FD02046FFF78FFCEC
:101AE000402838D13BE02046FFF789FC102838D049
:101AF0002046FFF784FC40282DD134E02046FFF734
:101B00007EFC102831D02046FFF779FC402822D1F6
:101B10002DE02046FFF773FC10282AD02046FFF75F
:101B20006EFC402817D126E02046FFF768FC1028FD
:101B300023D02046FFF763FC40280CD11FE020464D
:101B4000FFF75DFC10281CD02046FFF758FC40280A
:101B500001D1122116E0002114E0022112E0092136
:101B600010E003210EE00A210CE006210AE00B211F
:101B700008E0072106E0112104E0042102E00C2125
:101B800000E008212046FFF741FF1F212046FFF714
:101B900068F845EA051520F0FF0005432A461F2195
:101BA0002046FFF773F82046FFF726FC854219D13F
:101BB00094F8023113B12046FFF78AFE94F80331FE
:101BC00073B12046FFF7ABF918B12046FFF736FC9A
:101BD00006E02046FFF7BFF910B12046FFF760FC92
:101BE000012000E0002005B0BDE8F08300610000A6
:101BF000CC60000024600000B46000001E600000A3
:101C0000F0B5B1F5007F85B007460C4628D00ADC58
:101C100080291DD0B1F5807F1ED0402971D10025CB
:101C20004FF4802627E0B1F5C06F1DD006DCB1F57A
:101C3000806F66D102254FF400261CE0B1F5006FDD
:101C400016D0B1F5805F5CD103254FF4402612E039
:101C500000254FF4A0160EE001254FF410160AE0FF
:101C600001254FF4501606E003254FF4C01602E09C
:101C700003254FF4201608213846FEF7F2FF20F422
:101C80007012324308213846FFF700F83846FFF754
:101C9000B6FB0423103818BF012000931A4B00EB49
:101CA000450503EB8503384608222721FEF754FF3C
:101CB0003846FFF76AFE18B98DF80D00642306E078
:101CC0000023402C8DF80D300CBF1023202302255B
:101CD0008DF80C30062203AB272138460095FEF71D
:101CE0003BFF402CCCBF28231023ADF80E303846E4
:101CF00000950DF10E0326222721FEF72DFF01206E
:101D000000E0002005B0F0BD080000201F297FB5CD
:101D100006460D4618D8012403AB40F606022E21D4
:101D20000094FEF799FE9DF80C30009423F01F03F9
:101D30001D43304603AB40F606022E218DF80C50B1
:101D4000FEF70AFF204600E0002004B070BD07291E
:101D50007FB506460D4619D8012403AB40F60602AE
:101D60002E210094FEF778FE9DF80C10009401F0EF
:101D70001F0141EA45118DF80C10304603AB40F6C7
:101D800006022E21FEF7E8FE204600E0002004B007
:101D900070BD0000002313B580F804311F210446F4
:101DA000FEF75FFF1F2120F448122046FEF76EFF6A
:101DB0002046FFF7EAFD054B022203EB8003009269
:101DC00027212046FEF7C8FE02B010BD5460000077
:101DD000F0B5012385B080F804310546FFF7D5FD45
:101DE000012809D010D3022817D10024ADF80E0025
:101DF0004FF44816274611E00623ADF80E301024A4
:101E000000264FF4481709E01623ADF80E304024A1
:101E10004FF440164FF4003700E000241F212846FD
:101E2000FEF71FFF20EA060047EA00021F212846AE
:101E3000FEF72CFF022200920DF10E032721284607
:101E4000FEF78AFE1CB121462846FFF781FD05B04A
:101E5000F0BD00007FB590F8043104460E4684F8CA
:101E6000051103EB41032149022201EB43030092D8
:101E70002721FEF771FE04212046FEF7F2FE26B967
:101E80006423039340F4800509E020F48005204694
:101E9000FFF7F0FB40280CBF1023202303932A46B2
:101EA00004212046FEF7F2FE02230622009327219A
:101EB00003AB2046FEF750FE08212046FEF7D1FE78
:101EC0000B4B53F8263020F4C0421A432046082119
:101ED000FEF7DCFE94F80431204613B1FFF778FFDB
:101EE00001E0FFF757FF04B070BD00BF5460000071
:101EF000BC5F0000002310B580F806310446FFF7F0
:101F00007EFA01462046FFF7C5FB0D212046FFF76C
:101F1000FDFE20460321BDE81040FFF718BF10B5B5
:101F20000446FFF7E7FF05212046FFF77DFD04216A
:101F30002046FFF76BFD10212046FFF7DFFC20460F
:101F40000221FFF787FF20460121FFF797FA802142
:101F50002046FFF755FE204641F24101BDE8104002
:101F6000FFF703BD0021FEF77CBE000070B50446FC
:101F700086B090F859010E46002100F0EDFD0121D8
:101F800094F8580100F0E8FD012194F8580100F0A0
:101F900005FE00254148FEF74BFC052084F82A5138
:101FA000C4F82051C4F8245100F040FD2046FEF74B
:101FB0007BFE2046FFF7D6FF394B98426AD1204678
:101FC000FFF7EAF904F58C73C3E90001354B364994
:101FD00094F859011C60042200F076FC042120468C
:101FE000FEF73FFE042140F000522046FEF74EFE71
:101FF0000E212046FEF735FE0E2140F48142204698
:10200000FEF744FE731C0DD004212046FEF729FE86
:10201000042140F03D022046FEF738FE31462046BE
:10202000FFF7C7F92046FFF78EFC03AA08212046D8
:10203000FEF7E0FD9DF80C3084F85D3103AA09211C
:102040002046FEF7D7FD9DF80C3084F85C31002364
:1020500084F82C312046FFF762FF0D212046FFF760
:1020600055FE25238DF8133002238DF81230A92355
:102070008DF8113006AB072203F8082D04220092D8
:1020800023210C222046FEF767FD2046FFF778FB50
:10209000012000E0284606B070BD00BFF00300201C
:1020A0003001CADE04040020E90800004FF0FF31CF
:1020B000FFF75CBF014800F031B800BF8404002086
:1020C00053EC102B33F0004110B408D01148A3F5A5
:1020D0008014844208D804205DF8044B70471AB974
:1020E00002205DF8044B704703F1FF43094803F5F4
:1020F000E0038342EFD9B1F5801F01D20320EBE763
:10210000054B994201D00020E6E7B2FA82F040097F
:10211000E2E700BFFFFFDF7F0000F07F2DE9F04125
:1021200006460D4601EB02080C464445A4EB0507A4
:1021300007D0336814F8011B1B6830469847002805
:10214000F3D13846BDE8F08170B505460C46084627
:1021500049B102F067F82B680246214628465B68C1
:10216000BDE87040184770BD08B5FFF7EDFF08BD2A
:1021700003681B681847000008B50249FFF7E4FF31
:1021800008BD00BF8C61000038B50546FFF7DCFFD5
:1021900004462846FFF7F0FF204438BDF0B58BB069
:1021A00000238DF82430012A98BF0A220DF123055F
:1021B000B1FBF2F402FB1416F3B2092E94BF3033D4
:1021C0003733DBB22F46214605F80139002CEFD119
:1021D0003946FFF7B9FF0BB0F0BD10B42AB9036858
:1021E0005DF8044B1B68C9B21847D2B25DF8044BC6
:1021F000FFF7D4BF38B50546FFF7EFFF0446284682
:10220000FFF7BAFF204438BD2DE9F04107460E46DE
:1022100015462AB90368C9B21B68BDE8F0411847E2
:102220000A2A02D1002901DA04E0D2B2BDE8F04165
:10223000FFF7B4BF2D21FFF79BFF2A4604467142EA
:102240003846FFF7ABFF2044BDE8F08138B50546BE
:10225000FFF7DAFF04462846FFF78EFF204438BD1B
:102260002DE9F843804657EC106B0D46FFF728FF29
:1022700008B9424910E047EC106BFFF721FF012835
:1022800001D13F4908E04FF060423E4B30463946AD
:1022900001F014F928B13C494046FFF755FFBDE86D
:1022A000F8834FF06042394B3046394601F0E8F888
:1022B0000028F0D1002200233046394601F0E0F832
:1022C00040B12D214046FFF753FF07F1004304467C
:1022D0001F4600E004462E494FF0000900205FFA37
:1022E00089F39D4206D900222A4B00F081FF09F1B3
:1022F0000109F4E732463B4600F09EFC0F460646D5
:1023000001F00EF90A22014681464046FFF746FFDA
:1023100004447DB3484600F0CBFD02460B463046F0
:10232000394600F087FC06460F4640461A49FFF73B
:102330000BFF0444174B00223046394600F02EFEB6
:102340000F46064601F0C4F80A220146814640467F
:10235000FFF75AFF0444484600F0BAFD02460B4618
:102360003046394600F066FC013D15F0FF05064693
:102370000F46DFD12046BDE8F88300BF8F61000023
:1023800093610000FFFFEF4197610000FFFFEFC185
:102390000000E03F000024409B61000038B5C9B256
:1023A0000546FFF75DFF04462846FFF7E5FE20449B
:1023B00038BD00000649074A074B9B1A03DD043B62
:1023C000C858D050FBDC00F037F8FDF76BFF000079
:1023D000D863000000000020E0000020FEE7FEE7D8
:1023E000FEE7FEE7FEE7FEE7FEE7FEE7FEE7FEE7C5
:1023F000074B1B78062B09D1064B1B68C3F303134D
:10240000033B032B02D8044AD05C7047002070477E
:10241000E00F00F0E80F00F09D610000044B186829
:10242000421C04BF034B1878831F58425841704721
:1024300030010010E00F00F008B5FFF7EFFF28B102
:10244000654B664A1B68C3F304231360FFF7D0FF94
:1024500010B1634B634A1A60FFF7E0FF28B1624B8B
:10246000624A1B68C3F342331360FFF7C1FF20B118
:102470005F4AD36823F08073D360FFF7CFFF40B18A
:102480004FF080430022C3F80C21C3F81021C3F899
:102490003825FFF7ADFF10B1564B03221A60FFF746
:1024A000A7FF40B1544B05221A6001229A6700220F
:1024B0009A603F225A60514B1A68511C0BBF504B17
:1024C000504B1A781B6802BF08331B68C3F3031311
:1024D000062A4DD1033B032B03D84B4AD35C002B78
:1024E00046D04FF08052494BD2F80414C3F820155F
:1024F000D2F80814C3F82415D2F80C14C3F8281520
:10250000D2F81014C3F82C15D2F81414C3F83015EF
:10251000D2F81814C3F83415D2F81C14C3F84015B7
:10252000D2F82014C3F84415D2F82414C3F848157F
:10253000D2F82814C3F84C15D2F82C14C3F850154F
:10254000D2F83014C3F85415D2F83414C3F8601517
:10255000D2F83814C3F86415D2F83C14C3F86815DF
:10256000D2F84014C3F86C15D2F84424C3F870258F
:10257000FFF754FF28B1264B264A1B6803F04F0390
:102580001360FFF74BFF48B14FF08043D3F80024AE
:10259000D20744BF6FF00102C3F80024174B1B6839
:1025A000062B04D1174B1B68033B022B0ED81A4A8B
:1025B000D2F8883043F47003C2F88830BFF34F8FED
:1025C000BFF36F8F154B164A1A6008BD154A136882
:1025D00043F480631360EAE72403001040350140B0
:1025E00074C007400DF0ADBA440200103C05004035
:1025F000F0ED00E0A0050040105600403001001052
:10260000E00F00F034010010A161000000C00040A4
:1026100058020010E40E004000ED00E02800002009
:102620000090D0033C17004001207047036813223C
:10263000DB69184770470369C3F81C15D3F81C21E0
:10264000002AFBD00022C3F81C21012070470000A3
:1026500090F85C305AB2520910B4012120320F4C6C
:1026600003F01F0301FA03F344F8223003695DF815
:10267000044B0422C3F8082300225960D960C3F830
:1026800000254FF0FF32C3F80C251430C3F8142591
:10269000C3F80825C3F8102500F0A8BA00E100E04F
:1026A000143000F0B5BA143000F0B8BA143000F0AD
:1026B000A1BA0000026990F85E3030B5C2F80C355E
:1026C00090F85D30C2F8143590F86130012B01BFED
:1026D00090F85F40C2F8104590F86040C2F8084595
:1026E00018BF0023B1F5966FC2F86C352ED9B1F53D
:1026F000166F2ED9B1F5965F2ED9B1F5165F2DD98B
:10270000B1F5615F2CD9B1F5964F2BD9B1F5E14FF9
:102710002AD9B1F5164F29D9B1F5614F29D9B1F5AB
:10272000963F29D9B1F5E13F28D9B1F5613F28D9C4
:10273000344B994228D9B1F5E12F28D9B1F5612F51
:102740008CBF4FF080534FF0706322E04FF49E2314
:102750001FE04FF41D231CE02B4B1AE02B4B18E01D
:102760002B4B16E02B4B14E02B4B12E04FF41D03C8
:102770000FE04FF46B030CE0284B0AE04FF0EB73D3
:1027800007E04FF06C7304E04FF0806301E04FF01E
:10279000E863C2F8243500210423C2F80035C2F8EA
:1027A0000811C2F81C11012111609160C2F80433B4
:1027B00090F85C2053B2D2B202F01F055C09A94028
:1027C0006034174D002B45F8241006DA154B02F043
:1027D0000F02134460221A7606E003F1604303F50A
:1027E0006143602283F8002390F85C3001215AB2E3
:1027F00003F01F0301FA03F35209094941F822309B
:1028000030BD00BF90D0030000B01300005027007F
:1028100000F03A0000A04E0000C0750000903A01A0
:1028200000E100E0FCEC00E02DE9F0411E464FF431
:102830007A73002583600E4B4560044640F8143BD4
:102840001746884600F0BCF90A4AC4F8108052F8CE
:10285000263084F85D309DF8183084F85C7052F8AA
:10286000233084F85E3084F861502046BDE8F08162
:10287000B0610000206100000369D3F8082110B5A1
:1028800004464AB1D3F818151430C9B200F0A3F9C0
:1028900023690022C3F8082110BD00000148FFF79A
:1028A000EBBF00BF8404002007B50E230093022273
:1028B0000D2303490348FFF7B7FF03B05DF804FB9E
:1028C0000020004084040020F8B52F4F0E463968E0
:1028D0000546144699B920222C4800F0FBFE2C4BEB
:1028E0004FF0FF321A605A602A4B4022C3F8802012
:1028F000C3F8802183F806231A6001233B601A2D58
:1029000040D8032C05D0042C05D0022C3AD1032446
:1029100002E0022400E001241F4B1D4953F825204A
:1029200000200B565D1C28D1194B1A54174B43F845
:102930002060830003F1804303F5C0431202D3F803
:10294000101521F4473121F44071C3F81015D3F864
:10295000105502F4F85141EA04422A43C3F8102505
:10296000D3F8102542F00102C3F81025012303FA21
:1029700000F00A4BC3F80403F8BD9A42D4D00130EA
:102980000828CED1F8BD00BFF0040020F4040020D8
:10299000E804002000E100E0206100000060004049
:1029A0002DE9F743114D124E124FDFF84C800024F1
:1029B000A94655F8043B012B12D1D6F80423A340B5
:1029C00013420DD0E357013303D058F8243003B13C
:1029D0009847002345F8043CD9F800300193019B47
:1029E0000134082CE4D103B0BDE8F083006100405D
:1029F00000600040E8040020F4040020094B19683E
:102A0000094B30B5D3F804050A060B0A02434FF40C
:102A10007A71A2FB014501FB0355E00B40EA4540FA
:102A200030BD00BF140500200010014038B5044639
:102A300048B1FFF7E3FF054600F01AF8FFF7DEFFA5
:102A4000401B8442F8D838BD074B0022C3F804214C
:102A500082B0D3F80431054A0193019B1368013316
:102A6000DBB2136002B07047001001401405002073
:102A70007047704708B500F011F8FFF7FAFF012022
:102A8000FFF7D4FFFDF760FE034CFDF745FC002C7B
:102A9000FBD0AFF30080F8E7000000002A4BE022F3
:102AA00083F811234FF40032C3F880211A604FF0ED
:102AB00080430122C3F818259A6003F5883300216A
:102AC000C3F808150221C3F80413C3F844131A60AD
:102AD0004FF01023D3F80022002A03DBD3F804328E
:102AE000002B2FDA194B0122C3F80425D3F8002458
:102AF000002AFBD04FF010221521C2F80012D3F8A3
:102B00000024002AFBD04FF0102315220F49C3F8F0
:102B10000422D1F800240D4B002AFAD00022C3F879
:102B20000425D3F80024002AFBD0BFF34F8F0849B7
:102B3000084BCA6802F4E0621343CB60BFF34F8FC7
:102B400000BFFDE7704700BF00E100E000E001408A
:102B500000ED00E00400FA051A281BD80E4B53F8CC
:102B60002030032916D8DFE801F0020E060A03F52B
:102B7000E07300210AE003F5E0730C2106E003F5A1
:102B8000E073042102E003F5E07303214FF0A0425B
:102B900042F82310704700BF206100001A280CD8AB
:102BA000064B53F82020012393404FF0A04211B967
:102BB000C2F80C357047C2F8083570472061000034
:102BC00010B540220446002100F084FD0023236458
:102BD0006364204610BD026C10B5531C446C03F0B6
:102BE0003F039C421CBF8154036410BD0023036457
:102BF00043647047436C026C93421FBFC25C013355
:102C000003F03F03436414BF10464FF0FF3070479A
:102C1000036C406C181A48BF40307047436C026C1C
:102C2000934214BFC05C4FF0FF30704781F0004109
:102C300002E000BF83F0004330B54FEA41044FEAA1
:102C4000430594EA050F08BF90EA020F1FBF54EA3C
:102C5000000C55EA020C7FEA645C7FEA655C00F0D8
:102C6000E2804FEA5454D4EB5555B8BF6D420CDDA9
:102C70002C4480EA020281EA030382EA000083EA2C
:102C8000010180EA020281EA0303362D88BF30BDCC
:102C900011F0004F4FEA01314FF4801C4CEA113122
:102CA00002D0404261EB410113F0004F4FEA033381
:102CB0004CEA133302D0524263EB430394EA050F0C
:102CC00000F0A780A4F10104D5F1200E0DDB02FA7B
:102CD0000EFC22FA05F2801841F1000103FA0EF20F
:102CE000801843FA05F359410EE0A5F120050EF1D5
:102CF000200E012A03FA0EFC28BF4CF0020C43FA06
:102D000005F3C01851EBE37101F0004507D54FF012
:102D1000000EDCF1000C7EEB00006EEB0101B1F562
:102D2000801F1BD3B1F5001F0CD349085FEA3000A8
:102D30004FEA3C0C04F101044FEA445212F5800FB3
:102D400080F09A80BCF1004F08BF5FEA500C50F150
:102D5000000041EB045141EA050130BD5FEA4C0C33
:102D6000404141EB010111F4801FA4F10104E9D1BC
:102D700091F0000F04BF01460020B1FA81F308BFB3
:102D80002033A3F10B03B3F120020CDA0C3208DD7F
:102D900002F1140CC2F10C0201FA0CF021FA02F15A
:102DA0000CE002F11402D8BFC2F1200C01FA02F1CA
:102DB00020FA0CFCDCBF41EA0C019040E41AA2BFEF
:102DC00001EB0451294330BD6FEA04041F3C1CDAB7
:102DD0000C340EDC04F11404C4F1200220FA04F0D7
:102DE00001FA02F340EA030021FA04F345EA030181
:102DF00030BDC4F10C04C4F1200220FA02F001FA43
:102E000004F340EA0300294630BD21FA04F02946C4
:102E100030BD94F0000F83F4801306BF81F480115D
:102E20000134013D4EE77FEA645C18BF7FEA655CD0
:102E300029D094EA050F08BF90EA020F05D054EAA2
:102E4000000C04BF1946104630BD91EA030F1EBFA7
:102E50000021002030BD5FEA545C05D140004941AB
:102E600028BF41F0004130BD14F580043CBF01F59E
:102E7000801130BD01F0004545F0FE4141F4700184
:102E80004FF0000030BD7FEA645C1ABF194610465F
:102E90007FEA655C1CBF0B46024650EA013406BF60
:102EA00052EA033591EA030F41F4002130BD00BF1F
:102EB00090F0000F04BF0021704730B54FF48064DC
:102EC00004F132044FF000054FF0000150E700BF5D
:102ED00090F0000F04BF0021704730B54FF48064BC
:102EE00004F1320410F0004548BF40424FF00001A9
:102EF0003EE700BF42004FEAE2014FEA31014FEAEC
:102F000002701FBF12F07F4393F07F4F81F060513A
:102F1000704792F0000F14BF93F07F4F704730B5A9
:102F20004FF4607401F0004521F0004120E700BF3C
:102F300050EA010208BF704730B54FF000050AE0C3
:102F400050EA010208BF704730B511F0004502D5C4
:102F5000404261EB41014FF4806404F132045FEAC6
:102F6000915C3FF4DCAE4FF003025FEADC0C18BF6B
:102F700003325FEADC0C18BF033202EBDC02C2F161
:102F8000200300FA03FC20FA02F001FA03FE40EAF3
:102F90000E0021FA02F11444C1E600BF70B54FF0F3
:102FA000FF0C4CF4E06C1CEA11541DBF1CEA1355D5
:102FB00094EA0C0F95EA0C0F00F0DEF82C4481EA3D
:102FC000030621EA4C5123EA4C5350EA013518BF5D
:102FD00052EA033541F4801143F4801338D0A0FB4A
:102FE00002CE4FF00005E1FB02E506F00042E0FBF7
:102FF00003E54FF00006E1FB03569CF0000F18BFFD
:103000004EF0010EA4F1FF04B6F5007F64F54074A4
:1030100004D25FEA4E0E6D4146EB060642EAC62137
:1030200041EA55514FEAC52040EA5E504FEACE2EA4
:10303000B4F1FD0C88BFBCF5E06F1ED8BEF1004FA7
:1030400008BF5FEA500E50F1000041EB045170BD23
:1030500006F0004646EA010140EA020081EA030167
:10306000B4EB5C04C2BFD4EB0C0541EA045170BD63
:1030700041F480114FF0000E013C00F3AB8014F1DD
:10308000360FDEBF002001F0004170BDC4F1000426
:10309000203C35DA0C341BDC04F11404C4F12005A7
:1030A00000FA05F320FA04F001FA05F240EA020002
:1030B00001F0004221F0004110EBD37021FA04F638
:1030C00042EB06015EEA430E08BF20EAD37070BDF2
:1030D000C4F10C04C4F1200500FA04F320FA05F051
:1030E00001FA04F240EA020001F0004110EBD37053
:1030F00041F100015EEA430E08BF20EAD37070BDC3
:10310000C4F1200500FA05F24EEA020E20FA04F39B
:1031100001FA05F243EA020321FA04F001F000414A
:1031200021FA04F220EA020000EBD3705EEA430EBB
:1031300008BF20EAD37070BD94F0000F0FD101F0EA
:103140000046400041EB010111F4801F08BF013C23
:10315000F7D041EA060195F0000F18BF704703F061
:103160000046520043EB030313F4801F08BF013DE8
:10317000F7D043EA0603704794EA0C0F0CEA1355A4
:1031800018BF95EA0C0F0CD050EA410618BF52EA5E
:103190004306D1D181EA030101F000414FF0000064
:1031A00070BD50EA410606BF1046194652EA430672
:1031B00019D094EA0C0F02D150EA013613D195EAE6
:1031C0000C0F05D152EA03361CBF104619460AD12E
:1031D00081EA030101F0004141F0FE4141F4700138
:1031E0004FF0000070BD41F0FE4141F4780170BD28
:1031F00070B54FF0FF0C4CF4E06C1CEA11541DBF8D
:103200001CEA135594EA0C0F95EA0C0F00F0A7F88E
:10321000A4EB050481EA030E52EA03354FEA0131BB
:1032200000F088804FEA03334FF0805545EA1313CE
:1032300043EA12634FEA022245EA111545EA106596
:103240004FEA00260EF000419D4208BF964244F12D
:10325000FD0404F5407402D25B084FEA3202B61A4C
:1032600065EB03055B084FEA32024FF480104FF420
:10327000002CB6EB020E75EB030E22BFB61A754694
:1032800040EA0C005B084FEA3202B6EB020E75EB27
:10329000030E22BFB61A754640EA5C005B084FEA8F
:1032A0003202B6EB020E75EB030E22BFB61A75465C
:1032B00040EA9C005B084FEA3202B6EB020E75EB67
:1032C000030E22BFB61A754640EADC0055EA060E28
:1032D00018D04FEA051545EA16754FEA06164FEA6B
:1032E000C30343EA52734FEAC2025FEA1C1CC0D117
:1032F00011F4801F0BD141EA00014FF000004FF0A4
:10330000004CB6E711F4801F04BF01430020B4F164
:10331000FD0C88BFBCF5E06F3FF6AFAEB5EB030C1C
:1033200004BFB6EB020C5FEA500C50F1000041EB19
:10333000045170BD0EF0004E4EEA113114EB5C04E6
:10334000C2BFD4EB0C0541EA045170BD41F48011B9
:103350004FF0000E013C90E645EA060E8DE60CEAC1
:10336000135594EA0C0F08BF95EA0C0F3FF43BAFDE
:1033700094EA0C0F0AD150EA01347FF434AF95EA95
:103380000C0F7FF425AF104619462CE795EA0C0F79
:1033900006D152EA03353FF4FDAE1046194622E746
:1033A00050EA410618BF52EA43067FF4C5AE50EA20
:1033B00041047FF40DAF52EA43057FF4EBAE12E710
:1033C0004FF0FF3C06E000BF4FF0010C02E000BFF1
:1033D0004FF0010C4DF804CD4FEA410C7FEA6C5CD4
:1033E0004FEA430C18BF7FEA6C5C1BD001B050EA77
:1033F000410C0CBF52EA430C91EA030F02BF90EA62
:10340000020F0020704710F1000F91EA030F58BF20
:10341000994208BF90422CBFD8176FEAE37040F082
:10342000010070474FEA410C7FEA6C5C02D150EA20
:10343000013C07D14FEA430C7FEA6C5CD6D152EADB
:10344000033CD3D05DF8040B704700BF84461046A0
:1034500062468C461946634600E000BF01B5FFF79F
:10346000B7FF002848BF10F1000F01BD4DF808ED6F
:10347000FFF7F4FF0CBF012000205DF808FB00BF40
:103480004DF808EDFFF7EAFF34BF012000205DF89A
:1034900008FB00BF4DF808EDFFF7E0FF94BF0120E7
:1034A00000205DF808FB00BF4DF808EDFFF7CEFFE8
:1034B00094BF012000205DF808FB00BF4DF808ED27
:1034C000FFF7C4FF34BF012000205DF808FB00BFF8
:1034D0004FEA410212F5001215D211D56FF478733C
:1034E000B3EB625212D94FEAC12343F0004343EADF
:1034F000505311F0004F23FA02F018BF40427047BA
:103500004FF00000704750EA013005D111F0004043
:1035100008BF6FF0004070474FF00000704700BFD9
:103520004A0011D212F5001211D20DD56FF4787342
:10353000B3EB62520ED44FEAC12343F0004343EA97
:10354000505323FA02F070474FF00000704750EAE2
:10355000013002D14FF0FF3070474FF0000070474C
:103560004FEA4102B2F1E04324BFB3F5001CDCF1A5
:10357000FE5C0DD901F0004C4FEAC0024CEA5070DD
:10358000B2F1004F40EB830008BF20F0010070470C
:1035900011F0804F21D113F13872BCBF01F000400F
:1035A000704741F480114FEA5252C2F11802C2F141
:1035B000200C10FA0CF320FA02F018BF40F00100C2
:1035C0004FEAC1234FEAD32303FA0CFC40EA0C0074
:1035D00023FA02F34FEA4303CCE77FEA625307D1B1
:1035E00050EA01331EBF4FF0FE4040F440007047E8
:1035F00001F0004040F0FE4040F40000704700BF82
:103600001FB51C46094B1B680546D86812B9084B04
:103610001A4600E0074B02928DE80A0022462B462C
:10362000054900F01FF800F0C5FE00BF8C00002027
:103630008E610000D8610000E561000008B5074B0D
:10364000044613B10021AFF30080054B1868836A6C
:1036500003B19847204602F0DDFB00BF00000000E8
:10366000186200000EB403B5014603AB054853F8D9
:10367000042B0068019300F05FF802B05DF804EBE2
:1036800003B070478C00002070B50E4B0E4CE41A4E
:10369000A41000251E46A54204D056F825309847B0
:1036A0000135F8E702F0B8FB084C094BE41AA41006
:1036B00000251E46A54204D056F82530984701350E
:1036C000F8E770BDC8000020C8000020D800002026
:1036D000C800002002440346934202D003F8011BB5
:1036E000FAE770479368013B002B10B4936009DA46
:1036F0009469A34202DBCBB20A2B03D15DF8044BE1
:1037000000F098BD1368581C10601970C8B25DF8BD
:10371000044B7047F8B506460F461446D518AC4220
:1037200008D03A4614F8011B3046FFF7DBFF431C74
:10373000F5D100E00020F8BD2DE9F04F9DB00C461A
:1037400017460393064618B183690BB901F05AFD79
:103750007F4B9C4201D1746808E07E4B9C4201D1B2
:10376000B46803E07C4B9C4208BFF468A389180747
:103770000CD5236953B10023099320238DF82930F8
:1037800030238DF82A30DFF8D4B144E021463046AA
:1037900000F0A4FD0028EED04FF0FF30D5E0039AF2
:1037A000111D12680391002A80F28C80524243F06E
:1037B00002000792049098F800302E2B00F08480CD
:1037C000032298F80010654801F002FE48B140233A
:1037D000CBEB000003FA00F0049B1843049008F1BF
:1037E000010898F800105E488DF82810062208F1AC
:1037F000010701F0EDFD002800F09580594B002BEA
:1038000040F08880039B073323F0070308330393BA
:10381000099B53440993B846454615F8013B1BB92B
:10382000B8EB07090FD003E0252BF9D0A846F3E742
:103830004B463A4621463046FFF76CFF01307FD0B9
:10384000099B4B44099398F80030002B78D0002353
:103850004FF0FF3204930793059206938DF853308F
:103860001A930127052229783F4801F0B1FD05F19F
:103870000108049B38B13C4A801A07FA00F018434B
:1038800004904546EEE7D90644BF20228DF8532028
:103890001A0744BF2B228DF853202A782A2A3FF496
:1038A0007EAF079A00210A20A846013598F800301B
:1038B000303B092B03D800FB02320121F4E7002939
:1038C0003FF479AF079276E798F801302A2B0BD1B5
:1038D000039B1A1D1B680392002BB8BF4FF0FF33E8
:1038E00008F1020805936BE70023059308F1010036
:1038F00019460A258046013098F80020303A092AF6
:1039000003D805FB01210123F4E7002B3FF458AF56
:10391000059155E703AB00932246144B04A93046AA
:1039200000F0BAF807E003AB009322460F4B04A95E
:10393000304600F051FBB0F1FF3F82467FF468AFA4
:10394000A3895B063FF528AF09981DB0BDE8F08F4D
:103950006862000088620000A86200002262000025
:1039600026620000993A00001C6200001537000032
:103970002DE9FF4755EC104B0D9FDDF830A0002DD1
:103980000E4691461946B8BF22462B4627F020071F
:10399000BBBF05F100431D4600232D23B8BF1446CD
:1039A000462F0B7003D0452F03D1013601E00321D0
:1039B00000E0022103AB019302AB00933246534671
:1039C00045EC104B00F08CFD472F804602D119F0DA
:1039D000010F28D0462F08EB060911D198F80030C6
:1039E000302B0AD10022002320462946FFF73EFD56
:1039F00018B9C6F10106CAF80060DAF80030994437
:103A00000022002320462946FFF730FD08B9302266
:103A100002E0CDF80C9006E0039B994503D9591CB0
:103A200003911A70F8E7039B0E9AC8EB0303404614
:103A3000136004B0BDE8F08773B503460029B8BF32
:103A4000494203F8022BB4BF2D222B2209294270D0
:103A500019DD0DF1070216460A2591FBF5F405FB69
:103A600014113031092C02F8011D2146F5DC3031EA
:103A7000541E02F8011CB4421A460AD214F8012B53
:103A800003F8012BF7E730241A46214402F8024BD1
:103A90005970101A02B070BD2DE9F04F8BB00C4672
:103AA00016461F46DDF85080054601F035FCD0F87B
:103AB00000B0584600F0B6FB00230893D8F8003059
:103AC0000490073323F0070303F1080294F81890D9
:103AD000C8F80020D3E90023C4E9122394ED120BA7
:103AE000FEF7EEFA012819D100220023D4E91201D1
:103AF000FFF7C6FC10B12D2384F84330974B984A4A
:103B0000B9F1470F8CBF9046984603232361236881
:103B100023F0040323604FF0000A8EE094ED120BB3
:103B2000FEF7CEFA226860B98E4B8F4922F004026C
:103B3000B9F1470F8CBF8846984603232361226062
:103B4000E9E761684B1C94ED120B08A801D106232C
:103B500009E0B9F1670F02D0B9F1470F04D100298C
:103B600040F0AF8101236360002342F4806203933D
:103B700007AB0290009322600DF11B03CDF8049077
:103B800061682846FFF7F4FE09F0DF03472B804603
:103B900009D1079BD81C02DB6268934230DDA9F192
:103BA00002095FFA89F9B9F1650F079912D801394D
:103BB0004A4604F150000791FFF73EFF089A831828
:103BC000012A8246236102DC2268D1072FD5013306
:103BD00023612CE0B9F1660F14D10029636807DD79
:103BE000216113B92268D2071DD501330B4419E0B6
:103BF00013B92268D00701D5023313E0012311E085
:103C00004FF06709079B089A934205DB22682361FE
:103C1000D10708D5013305E0002BD4BFC3F102035F
:103C2000012313442361079BA3654FF0000A9DF80D
:103C30001B3013B12D2384F843300097334609AA73
:103C40002146284600F052F9013002D14FF0FF30F2
:103C500048E123685A0501D4236965E0B9F1650F8D
:103C600040F2D48000220023D4E91201FFF7FEFBCA
:103C700078B301233D4A31462846B8470130E5D0A4
:103C8000089B079A9A420BDB2368D80708D423685D
:103C90009B0740F110814FF0000804F1190905E17C
:103CA000049B5A4631462846B8470130CED04FF0E3
:103CB000000804F11A09089B013B9845E7DA012343
:103CC0004A4631462846B8470130BFD008F10108BE
:103CD000F1E7079B002B29DC0123244A31462846C3
:103CE000B8470130B2D0079B23B9089B13B92368AA
:103CF000D907CCD5049B5A4631462846B8470130EF
:103D0000A4D04FF0000904F11A0A079B5B429945C1
:103D100009DA0123524631462846B847013095D08A
:103D200009F10109F1E7089B4246A6E0089AA36D54
:103D30009A42A8BF1A46002A914607DC04F11A03EA
:103D40004FF0000A29EAE97905931BE01346314652
:103D500042462846B8470130F0D177E72D6200008F
:103D600093610000316200008F6100003562000045
:103D70000123059A31462846B84701303FF466AF23
:103D80000AF1010AA36DC9EB03029245F0DB08EBCF
:103D90000309079A089B9A420FDB2368DA070CD4C1
:103DA000089B079A9844C9EB08089B1A9845A8BF36
:103DB0009846B8F1000F08DC0FE0049B5A463146E4
:103DC0002846B8470130EBD140E743464A463146E2
:103DD0002846B84701303FF439AF4FF0000928EAD0
:103DE000E87804F11A0A09E00123524631462846D0
:103DF000B84701303FF42AAF09F10109079A089B3F
:103E00009B1AC8EB03039945EEDB40E7089A012AA9
:103E100001DCDB0738D50123424631462846B84746
:103E200001303FF413AF049B5A4631462846B84749
:103E300001303FF40BAF00220023D4E91201FFF759
:103E400015FB20B14FF0000804F11A090EE0089BA1
:103E500008F10102013B19E001234A463146284698
:103E6000B84701303FF4F2AE08F10108089B013B6E
:103E70009845F1DB534604F1500231462846B847D5
:103E800001307FF404AFE1E6012342463146284683
:103E9000B8470130EED1D9E601234A4631462846DB
:103EA000B84701303FF4D2AE08F10108E368099A3F
:103EB0009B1A9845F0DBE068099B9842B8BF18460A
:103EC00010E0002342F48062039307AB029000935A
:103ED0002260CDF804900DF11B032846FFF748FD42
:103EE000804656E60BB0BDE8F08F00BF2DE9F047E5
:103EF00091461F460A698B68DDF820809342B8BF5F
:103F00001346C9F8003091F8432006460C4612B11A
:103F10000133C9F800302368990642BFD9F8003050
:103F20000233C9F80030256815F0060510D104F1F8
:103F3000190A07E00123524639463046C04701308E
:103F40001AD00135E368D9F800209B1A9D42F1DBB5
:103F500094F843302268003318BF012392060FD52E
:103F6000E1185A1C302081F84300224494F845108F
:103F700082F84310023303E04FF0FF30BDE8F087D2
:103F800004F1430239463046C0470130F4D022687C
:103F9000D9F80050E36802F00602042A08BF5D1B4E
:103FA0002269A3680CBF25EAE57500259342C4BFCA
:103FB0009B1AED184FF000091A344D4509D0012322
:103FC000224639463046C0470130D5D009F10109B3
:103FD000F3E70020BDE8F0872DE9F04317460A7E9D
:103FE00085B06E2A984606460C460C9B01F1430E9E
:103FF00000F0AE8011D8632A22D009D8002A00F040
:10400000BB80582A40F0CA8081F84520834955E09A
:10401000642A1ED0692A1CD0C0E0732A00F0B08048
:1040200009D86F2A2ED0702A40F0B8800A6842F072
:1040300020020A603EE0752A24D0782A3AD0ADE00A
:104040001A6801F14205111D1960136884F84230A5
:10405000A8E021681A6811F0800F02D0111D1960C4
:1040600008E011F0400F02F10401196002D0B2F92A
:10407000003000E01368002B3CDA2D225B4284F80C
:10408000432037E021681A6811F0800F02D0111D1B
:10409000196007E011F0400F02F10401196001D02E
:1040A000138800E01368227E5C496F2A14BF0A223D
:1040B00008221BE078225A4984F8452022681868B3
:1040C00012F0800F00F104051D6003D1550601D5E3
:1040D000038800E00368D00744BF42F0200222605A
:1040E0001BB9226822F0200222601022002084F8EE
:1040F000430001E049490A226568A560002D08DBFC
:10410000206820F0040020602BB9002D7DD1754679
:104110000CE0002B79D07546B3FBF2F002FB1033B4
:10412000CB5C05F8013D03460028F5D1082A0BD1E8
:104130002368DA0708D5236962689A42DEBF302314
:1041400005F8013C05F1FF35C5EB0E0323612EE0B8
:1041500008681A68496910F0800F03D0101D1860B4
:10416000136808E010F0400F02F1040018601368B3
:1041700001D0198000E0196000232361754616E024
:104180001A68111D1960156862680021284601F03F
:104190001FF908B1401B6060636804E004F1420548
:1041A00084F8422001232361002384F84330CDF8B2
:1041B00000803B4603AA21463046FFF797FE0130B8
:1041C00002D14FF0FF3026E023692A4639463046B7
:1041D000C0470130F5D023689B0710D5002504F1B6
:1041E000190907E001234A4639463046C0470130E5
:1041F000E7D00135E368039A9B1A9D42F2DBE06841
:10420000039B9842B8BF184605E00B7884F842300B
:1042100004F142058AE705B0BDE8F083376200008B
:1042200048620000034613F8012B002AFBD1181A3C
:1042300001387047F8B50F461446064618B1836931
:104240000BB900F0DFFF224B9C4201D1746808E0FB
:10425000204B9C4201D1B46803E01F4B9C4208BF35
:10426000F468A369A360A3891A0709D523693BB140
:1042700023682069181A63699842FDB20FDB08E0D1
:104280002146304600F02AF80028F1D04FF0FF30E8
:10429000F8BD2146304600F04BFF0028F6D1A36858
:1042A000013BA36023685A1C22601F706269431C93
:1042B000934204D0A389DB0707D50A2D05D12146F7
:1042C000304600F035FF0028E0D12846F8BD00BF99
:1042D0006862000088620000A8620000314B70B57F
:1042E0001D6806460C4625B1AB6913B9284600F097
:1042F00089FF2D4B9C4201D16C6808E02B4B9C42FE
:1043000001D1AC6803E02A4B9C4208BFEC68A3894A
:104310009AB211071DD4D50602D40922326038E0C2
:10432000500712D5616B41B104F14403994202D0A8
:10433000304601F08DFB00236363A38923F024033F
:10434000A3810023636023692360A38943F00803EA
:10435000A38123694BB9A38903F42073B3F5007FCC
:1043600003D02146304600F0DBFFA38913F00102A1
:1043700005D00022A26062695242A26103E099075F
:1043800058BF6269A26022694AB903F0800080B216
:1043900030B143F04003A3814FF0FF3070BD0020E7
:1043A00070BD00BF8C0000206862000088620000C1
:1043B000A862000008B5062001F01EFC012001F0F3
:1043C00029FD2DE9F74F03690C699C42804600F3F3
:1043D0008380013C01F114074FEA840E00F11406BA
:1043E00057F8245006EB0E030193013556F824309C
:1043F000B3FBF5F507EB0E09002D39D04FF0000A9D
:104400003846B446D34650F8042B93B205FB03A3B9
:104410004FEA134A9BB2C3EB0B03120CBCF800B07B
:1044200005FB02A213FA8BF34FEA124A1FFA82FB32
:10443000DCF80020CBEB124202EB23429BB243EAB2
:10444000024381454FEA224B4CF8043BDBD256F83D
:104450000E306BB9019B043B9E421A4602D3C8F84A
:10446000104005E01268043B002AF8D1013CF3E754
:10447000404601F016FA00282CDB013530464FF09B
:10448000000E57F8041BD0F800C08AB2C2EB0E032E
:10449000090C13FA8CF3C1EB1C4202EB23429BB2D2
:1044A00043EA0243B9454FEA224E40F8043BE8D2C2
:1044B00056F8242006EB840362B9043B9E421A4658
:1044C00002D3C8F8104005E01268043B002AF8D176
:1044D000013CF3E7284600E0002003B0BDE8F08F80
:1044E0002DE9F04F59EC108B97B0456A0691824642
:1044F00009921093209CCDE9008945B9102000F065
:104500005DFFCAF82400456085600560C560DAF883
:104510002430196859B15A684A60012393408B606E
:10452000504600F0E5FFDAF8243000221A60019BC3
:104530009F4A002BBFBF01232360019B23F0004350
:10454000B8BF0193019FA4BF0023236027F000435D
:104550001B0D1B0593421DD1109A42F20F7313607D
:10456000009B43B9934A944BC7F31300002814BF30
:104570001846104600E09048219B002B00F04A8529
:10458000C37813B100F1080300E0C31C219A136043
:1045900000F040BDDDE90045002200232046294609
:1045A000FEF764FF804658B1109A01231360219BE7
:1045B000002B00F0228581481860013800F02ABDE8
:1045C00014AA15A945EC104B504601F0E5F9C7F3C4
:1045D0000A5602905EB1C5F3130343F07F512046A3
:1045E00041F44011A6F2FF36CDF844801DE0159B42
:1045F000149E1E4406F23243202B0ADD009A06F276
:104600001240C3F1400322FA00F007FA03F3184303
:1046100004E0C3F12000009B03FA00F0FEF748FC21
:104620000123A1F1F871013E11930022644BFEF7C2
:1046300001FB59A3D3E90023FEF7B0FC58A3D3E94B
:104640000023FEF7F9FA044630460D46FEF740FC1B
:1046500055A3D3E90023FEF7A1FC02460B462046F2
:104660002946FEF7E9FA04460D46FEF731FF00221F
:104670008346002320462946FEF702FF58B15846DC
:10468000FEF726FC02460B4620462946FEF7EEFEC4
:1046900008B90BF1FF3BBBF1160F0DD8494901EBEF
:1046A000CB01DDE90023D1E90001FEF707FF30B1BE
:1046B0000BF1FF3B002300E001230D9300E00D9080
:1046C000149B9E1B731E059343BFC3F10009002377
:1046D00005934FF00009BBF1000F07DB059BCDF8F8
:1046E00030B05B4405930023079306E0CBF1000351
:1046F00007930023CBEB09090C93069B092B27D8C2
:10470000052BC4BF043B0693069BA3F10203CCBF59
:1047100000250125032B20D8DFE803F0060E020454
:10472000012302E0012308E000230893099B002BEA
:104730001CDD039398461EE000230893099B5B440D
:1047400003F1010803934346012BB8BF012312E094
:10475000012500230693089501E0012308934FF0FB
:10476000FF33039398460022122303E001230393AF
:1047700098461A460992DAF8244000226260042121
:1047800001F114029A421FD8626801326260490046
:10479000F6E700BFAFF3008061436F63A787D23FA6
:1047A000B3C8608B288AC63FFB799F501344D33F20
:1047B0000000F07F59620000626200003662000073
:1047C0000000F83FD06200006168504600F05BFED8
:1047D000DAF8243020601B680493B8F10E0F00F261
:1047E0005D81002D00F05A819DED007BBBF1000F33
:1047F0008DED0E7B31DDA04A0BF00F0302EBC303FE
:1048000093ED007B4FEA2B14E2068DED0A7B0CD56D
:104810009A4BDDE90E01D3E90823FEF7E9FC04F029
:104820000F04CDE90001032600E00226934D6CB190
:10483000E30708D5DDE90A01D5E90023FEF7AEFB61
:10484000CDE90A01013664100835F0E7DDE90A23F5
:10485000DDE90001FEF7CCFC20E0CBF1000404B35D
:10486000854B864D04F00F0203EBC203D3E900230E
:10487000DDE90E01FEF792FBCDE9000124110023D2
:10488000022654B1E70705D5D5E90023FEF786FBDC
:104890000136012364100835F3E71BB1CDE90001AF
:1048A00000E002260D9BEBB1DDE900450022744BD0
:1048B00020462946FEF7E4FDA0B1B8F1000F11D063
:1048C000039B002B40F3E6800BF1FF330A93002299
:1048D0006C4B20462946FEF761FB0136CDE900010D
:1048E000039F02E0CDF828B047463046FEF7F0FAC5
:1048F000DDE90023FEF752FB0022634BFEF79CF933
:104900000446A1F15075CFB90022604BDDE90001EA
:10491000FEF790F922462B46CDE90001FEF7CEFDC9
:10492000002840F04182224605F10043DDE9000104
:10493000FEF7A6FD002840F02E82ABE0089A4E4B11
:10494000791E002A4AD003EBC103D3E900230020DB
:104950004F49FEF74DFC22462B46FEF76BF9049CAF
:1049600005460E46DDE90001FEF7B2FD1290FEF7A6
:10497000AFFA02460B46DDE90001FEF75BF9129B38
:10498000303304F8013B2A463346CDE90001FEF7F7
:1049900077FD002840F02183DDE90023002038491D
:1049A000FEF748F92A463346FEF76AFD002840F034
:1049B000D280049BE31ABB426CDA0022314B2846BA
:1049C0003146FEF7EBFA002205460E462D4BDDE997
:1049D0000001FEF7E3FACDE90001C3E703EBC101F3
:1049E00022462B46D1E90001FEF7D8FA049BCDE917
:1049F0001201DC191D46DDE90001FEF769FD0646DE
:104A0000FEF766FA303602460B46DDE90001FEF796
:104A100011F905F8016BAC42CDE900014FF000023D
:104A200023D11B4BDDE91201FEF706F902460B46C6
:104A3000DDE90001FEF742FD002840F08C80DDE951
:104A4000122300201249FEF7F5F802460B46DDE975
:104A50000001FEF715FDE8B114F8013C302B04F11C
:104A6000FF3240F0BA821446F6E7064BFEF796FA9C
:104A7000CDE90001BFE700BFD062000098630000ED
:104A80000000F03F0000244000001C4000001440E3
:104A90000000E03FDDE90E34CDE90034159B002B2A
:104AA0007CDBBBF10E0F79DC8F4B03EBCB03D3E93F
:104AB0000067099B002B14DAB8F1000F11DC40F0FD
:104AC0006C810022894B30463946FEF767FADDE9F2
:104AD0000023FEF7E9FC45464646002840F05F818A
:104AE00066E1049C32463B46DDE90001FEF780FBAF
:104AF000FEF7EEFC0546FEF7EBF932463B46FEF7C5
:104B00004DFA0B460246DDE90001FEF793F805F188
:104B1000300E04F801EB049BC3EB040EF045CDE925
:104B200000012ED102460B46FEF786F880468946E4
:104B300002460B4630463946FEF7A2FC78B942469B
:104B40004B4630463946FEF791FC002800F047827C
:104B5000E90704D443E2DDF828B000E01C4614F86D
:104B6000012C392A04F1FF3307D1049A9A42F5D176
:104B7000049930220BF1010B0A701A7801321A7075
:104B80002DE200225A4BFEF709FA00220023CDE95C
:104B90000001FEF76BFC0028A4D020E2089A002A4E
:104BA0002DD0069A012A0ADC119A12B103F233437E
:104BB00002E0149BC3F13603079D4C4615E0079BAA
:104BC00008F1FF35AB42BFBF079B0795EA1A0C9B64
:104BD000B7BF9B185D1B0C930025B8F1000FB9BF40
:104BE000C8EB090400234C464346059A01211A44A8
:104BF00050469944059200F01AFD064602E0079DD2
:104C0000089E4C465CB1059B002B08DDA342059A2B
:104C1000A8BF2346C3EB0909E41AD31A0593079BDF
:104C2000002B1DDD089BABB185B131462A465046AD
:104C300000F098FD029A01460646504600F000FD3D
:104C400002990746504600F053FC0297079B5A1BF7
:104C500006D000E0079A0299504600F083FD0290CA
:104C60000121504600F0E3FC0C9B05465BB31A465D
:104C70000146504600F076FD069B012B054618DCE8
:104C8000009B83B9019BC3F3130373B9019B23F00A
:104C900000473F0D3F054FB1059B013309F1010965
:104CA0000593012702E0002700E0009F0C9B73B1F1
:104CB00000E000272B6905EB8303186900F06AFC0C
:104CC000C0F1200004E0069B012BD9DD0C9F0120E0
:104CD000059B184410F01F000ED0C0F12003042BD8
:104CE00008DDC0F11C0008E0D062000000001440A4
:104CF0000000244006D018461C30059B0344814424
:104D000004440593B9F1000F05DD4A460299504667
:104D100000F076FD0290059B002B05DD29461A4622
:104D2000504600F06DFD05460D9BEBB129460298FB
:104D300000F0B7FD002817DA00230A220299504636
:104D400000F0EDFB089B02900BF1FF3B002B00F005
:104D50005881002331460A22504600F0E0FB039BB5
:104D6000002B064637DC33E0B8F1000F2ADC069B47
:104D7000022B27DDCDF80C80039B83B92946052241
:104D8000504600F0CCFB01460546029800F089FD34
:104D900000280DDC03E03D4600E000252E46099B7F
:104DA000049C6FEA030B0AE0DDF828B03D463E465E
:104DB000049B049A5C1C312313700BF1010BB04669
:104DC0000026F7E0089BCDF80C8023B9049CB1E0E5
:104DD000069B022BD0DC002C05DD314622465046D6
:104DE00000F00EFD06469FB17168504600F04BFB87
:104DF000326902320446920006F10C010C3000F0D8
:104E000037FB01222146504600F0FAFC804600E0C4
:104E1000B046009BDDF8109003F00103059329468E
:104E20000298FFF7CEFA3146044600F130070298A7
:104E300000F037FD424600902946504600F04DFDF7
:104E4000C36802463BB901460790029800F029FD6D
:104E5000079A034600E0012311465046079300F0ED
:104E600047FB079B4BB9069A3AB9059A2AB9392FDD
:104E700028D0009B002B1ADC1BE0009A002A04DBE0
:104E80001AD1069AC2B9059AB2B9002B11DD0122D6
:104E90000299504600F0B4FC2946029000F001FD52
:104EA000002802DC05D1FA0703D5392F0AD004F116
:104EB000310709F101040CE0002B09F101040BDDBD
:104EC000392F05D1392389F8003009F1010954E05F
:104ED000013789F800706DE0049B039A04F8017CA7
:104EE000E31A9342A1463AD000230A22029950467F
:104EF00000F015FB464502904FF000034FF00A0208
:104F00003146504604D100F00AFB0646804686E74B
:104F100000F005FB4146064600230A22504600F0F9
:104F2000FEFA80467BE700230A220299504600F0F1
:104F3000F6FA029029460298FFF743FA00F130078B
:104F400004F8017B049B039AE31A9342EBDB049B76
:104F5000012AACBF9B180133B046994600260122B6
:104F60000299504600F04CFC2946029000F099FC52
:104F7000002802DC15D1FB0713D54C4614F8013C80
:104F8000392B04F1FF3209D1049B934204D10BF178
:104F9000010B3123049A02E01446EFE7013313704A
:104FA00008E04C4614F8013C302B04F1FF3201D1EB
:104FB0001446F7E72946504600F09AFAB8F1000F78
:104FC0000DD02EB1464503D03146504600F090FA40
:104FD0004146504600F08CFA01E0DDF828B0029915
:104FE000504600F085FA0023109A23700BF101035C
:104FF0001360219B1BB11C6001E008480AE0049883
:1050000008E0039B002B3FF7E1AE069B022B7FF7E6
:10501000DDAEB1E617B0BDE8F08F00BF356200002D
:105020008A892DE9F041054610070C4659D44B6892
:10503000002B02DC0B6C002B17DDE66AAEB102F42C
:105040008052002392B22F682B600AB1606D15E088
:10505000216A01232846B047411C0FD12B686BB150
:105060001D2B01D0162B03D12F600020BDE8F0814D
:10507000A38943F04003A381BDE8F081A3895A07C7
:1050800005D56368C01A636B0BB1236CC01A00238B
:105090000246E66A216A2846B047431CA38906D126
:1050A00029681D293AD8214ACA40D60736D5002298
:1050B0006260D9042269226004D5421C01D12B68A8
:1050C00003B96065616B2F600029CED004F1440301
:1050D000994202D0284600F0BBFC00206063BDE886
:1050E000F0810F69002FC0D093070E6808BF4B698D
:1050F0000F6018BF0023C7EB06088B6002E007446F
:10510000C0EB0808B8F1000FAFDD43463A46216A0C
:10511000A66A2846B0470028F1DCA38943F0400383
:10512000A3814FF0FF30BDE8F08100BF01004020B7
:1051300038B50B6905460C46DBB118B183690BB96C
:1051400000F060F80C4B9C4201D16C6808E00B4BFE
:105150009C4201D1AC6803E0094B9C4208BFEC685B
:10516000B4F90C302BB121462846BDE83840FFF792
:1051700057BF002038BD00BF686200008862000091
:10518000A8620000014900F0A9B800BF3151000039
:10519000002310B504460360436083608181436649
:1051A000C281036143618361194608225C30FEF7C6
:1051B00091FA054B6362054BA362054BE362054B15
:1051C0002462236310BD00BF315C0000535C00000B
:1051D0008B5C0000AF5C000070B568234D1E5D4322
:1051E0000E4605F1740100F079FC044640B100213F
:1051F00080E842000C30A06005F16802FEF76AFA10
:10520000204670BD836910B5044633BB8364C36414
:105210000365124B124A1B688262984204BF012345
:10522000836100F01FF86060204600F01BF8A0606A
:10523000204600F017F80022E06004216068FFF7C4
:10524000A7FF01220921A068FFF7A2FF0222122175
:10525000E068FFF79DFF0123A36110BD1862000005
:1052600085510000F8B51C4B1E68B369074613B999
:105270003046FFF7C7FF4836B4687368013B04D473
:10528000B4F90C507DB16834F8E733680BB1366877
:10529000F2E704213846FFF79FFF30600028F6D17F
:1052A0000C233B60F8BD4FF6FF73E3810123A3811C
:1052B00065662560A560656025616561A561082258
:1052C000294604F15C00FEF705FA6563A563A56451
:1052D000E5642046F8BD00BF186200002DE9F843E0
:1052E0008046894600F14804002694B1A5686768A5
:1052F000013F0CD4AB89012B07D9B5F90E3001332E
:1053000003D029464046C84706436835F0E724687D
:10531000EBE73046BDE8F883004870479000002076
:10532000F0B58B899D0791B006460C4626D4B1F99D
:105330000E10002909DAA38913F0800F4FF0000541
:1053400014BF40274FF480670DE001AA00F0D6FC9F
:105350000028F0DB029D05F47045A5F500514D4293
:105360004D414FF480673946304600F0B7FB60B9D5
:10537000A3899A051DD443F00203A38104F14703D6
:10538000236023610123636113E00B4BB362A389A4
:10539000206043F08003A381206167614DB1B4F9BF
:1053A0000E10304600F0BCFC18B1A38943F0010395
:1053B000A38111B0F0BD00BF85510000024B014632
:1053C000186800F08BBB00BF8C00002000000000BC
:1053D00001F0FF01102A2BDB10F0070F08D010F8A6
:1053E000013B013A8B422DD010F0070F42B3F6D1AA
:1053F000F0B441EA012141EA014122F007047FF0C3
:1054000000070023F0E80256083C85EA010586EA19
:10541000010685FA47F5A3FA87F586FA47F6A5FA55
:1054200087F68EB9EED1F0BC01F0FF0102F0070261
:1054300032B110F8013B013A83EA010313B1F8D10C
:105440000020704701387047002D06BF35460338ED
:10545000073815F0010F07D1013015F4807F02BF26
:10546000013015F4C03F0130F0BC0138704700BF77
:1054700010B5431E0A44914204D011F8014B03F8C1
:10548000014FF8E710BD70B5456A04460E463DB9B8
:105490001020FFF793FF6062456085600560C5607E
:1054A000656AEB6843B1636ADB6853F8260078B13C
:1054B000026843F8262017E021220421204600F04C
:1054C000B9FA636AE860DB68002BECD1002070BD9C
:1054D000012101FA06F56A1D9200204600F0AAFAA1
:1054E0000028F3D04660856000230361C36070BD6F
:1054F00070B5446A06460D463CB91020FFF75EFFC2
:105500007062446084600460C4603DB1736A6A681C
:10551000DB6853F82210296043F8225070BD2DE952
:10552000F0410D691F4606460C4601F1140E00239A
:10553000DEF8000081B202FB01710F0C000C02FBCF
:10554000007089B2013301EB00419D424FEA1047E0
:105550004EF8041BECDCD7B1A3689D4212DB6168F6
:1055600030460131FFF78FFF2269023204F10C014E
:10557000804692000C30FFF77BFF21463046FFF754
:10558000B7FF444604EB850301355F612561204682
:10559000BDE8F081030C1B0413B90004102300E0E4
:1055A000002310F07F4F04BF0002083310F0704F4B
:1055B00004BF0001043310F0404F04BF80000233E9
:1055C000002803DB420003D5581C7047184670477B
:1055D00020207047036813F007020BD0D90722D4AC
:1055E0009A074BBF5B089B08036003604CBF012018
:1055F0000220704799B209B91B0C102213F0FF0F5B
:1056000004BF1B0A0832190704BF1B09043299079B
:1056100004BF9B080232D90702D45B0805D00132CF
:10562000036010467047002070472020704710B577
:105630000C460121FFF727FF01224461026110BDE2
:105640002DE9F74F14460A6923699A42B8BF0B4601
:105650008846BCBFA0461C46D8F81070D4F81090FD
:10566000D8F80830D8F8041007EB09069E42C8BFE6
:105670000131FFF708FF00F1140505EB860C2B46FE
:105680000022634502D243F8042BFAE704F1140226
:1056900008F1140102EB890301EB87070093009BDB
:1056A0000192934257D9B2F800B0BBF1000F23D05A
:1056B0008946AE464FF0000859F8044BBEF800A0EA
:1056C000A3B20BFB03A34FEA144ADEF800404344A5
:1056D0004FEA14480BFB0A8404EB1344F2469BB2D6
:1056E00043EA04434F454FEA14484AF8043B01D9C2
:1056F000D646E1E7CEF80480019BB3F802A004325D
:10570000BAF1000F21D02B682C4689464FF00008D3
:10571000B9F800E0B4F802B00AFB0EBEF044A346AC
:105720009BB243EA08434BF8043B59F8043BB4F8F6
:1057300004E01B0C0AFB03E303EB18434F454FEA5D
:10574000134801D95C46E3E763600435A7E75CF8DA
:10575000043D13B9013E002EF9DC066103B0BDE83B
:10576000F08F00002DE9F843154612F003020646BB
:105770000F4607D0013A214C002354F82220FFF7AE
:10578000CEFE0746AD1036D0746A3CB91020FFF744
:1057900015FE7062446084600460C460D6F82480A2
:1057A000D8F808404CB940F271213046FFF73FFF6E
:1057B0000023C8F80800044603604FF00008EB0718
:1057C0000AD5394622463046FFF73AFF3946814628
:1057D0003046FFF78DFE4F466D100CD0206808B1A3
:1057E0000446ECE7224621463046FFF729FF2060B9
:1057F000C0F80080F4E73846BDE8F883C0630000D5
:105800002DE9F0470C464FEA621A26694968A368F9
:10581000564407469146751CAB4202DA01315B00E3
:10582000FAE73846FFF72FFE0023804600F1140107
:105830001A46534503DA41F823200133F9E72AEAEF
:10584000EA73206901EB830319F01F0904F11401C5
:1058500001EB800E14D0C9F1200C0022086800FA78
:1058600009F002439A4643F8042B51F8042B8E4565
:1058700022FA0CF2F2D8CAF8042042B1B51C06E0B4
:10588000043B51F8042B43F8042F8E45F9D8013D11
:105890003846C8F810502146FFF72AFE4046BDE8BA
:1058A000F08703690A699B1A10B511D19200143070
:1058B000143183180A4453F8044D52F8041D8C42E5
:1058C00002D007D3012010BD9842F4D3002010BDB0
:1058D000184610BD4FF0FF3010BD2DE9F8430C46BF
:1058E0000746114620461546FFF7DBFF061E08D186
:1058F00031463846FFF7C7FD012303614661BDE825
:10590000F883BCBF23462C4638466168BABF1D46A3
:1059100001260026FFF7B7FD2B69C660266905F151
:105920001409143404EB860709EB830800F114050D
:105930004FF0000C54F8043B59F8042B1CFA83F187
:105940001FFA82FE120CCEEB0101C2EB134303EBF4
:10595000214389B24FEA234CC84541EA0343A64696
:1059600045F8043BE6D8BE450ED25EF8041B1CFA8F
:1059700081F2131403EB114392B242EA03424FEA5D
:10598000234C45F8042BEEE755F8043D0BB9013ED6
:10599000FAE70661BDE8F8832DE9F7430E460121D9
:1059A00059EC108B1546FFF76EFDC9F30A540746F4
:1059B000C9F313030CB143F480130193B8F1000F42
:1059C00019D002A840F8088DFFF704FE009B48B1EB
:1059D000019AC0F1200102FA01F10B43C2407B6140
:1059E000019200E07B61019BBB61002B14BF02218F
:1059F0000121396107E001A8FFF7ECFD019B7B6104
:105A000001213961203034B1A4F2334404443460BC
:105A1000C0F1350009E007EB8103A0F232403060AD
:105A20001869FFF7B7FDC0EB41102860384603B096
:105A3000BDE8F08338B502FB01F4214600F04EF8D2
:105A4000054618B122460021FDF744FE284638BD20
:105A500030B500293ED051F8042C0B1F1E49002AF6
:105A6000B8BF9B180A680C4612B95A600B6030BD6B
:105A70009A420ED919685818824204BF10685268B9
:105A80005A6004BF09181960236030BD994203D8D9
:105A90000A4651680029F9D1146815199D420AD1A6
:105AA0001B682344D0188142136013D10868034453
:105AB00013604B680DE002D90C23036030BD1868F9
:105AC0001C18A14204BF0C684968596004BF001942
:105AD0001860536030BD00BF1C05002070B5CD1CA0
